{
  "address": "0xFA178544dE36A29E4a7a53d8B9caF8B791d927fd",
  "abi": [
    {
      "inputs": [
        {
          "internalType": "string",
          "name": "contractURI_",
          "type": "string"
        },
        {
          "internalType": "string",
          "name": "baseURI_",
          "type": "string"
        },
        {
          "internalType": "address",
          "name": "signer",
          "type": "address"
        },
        {
          "internalType": "address",
          "name": "owner_",
          "type": "address"
        }
      ],
      "stateMutability": "nonpayable",
      "type": "constructor"
    },
    {
      "inputs": [],
      "name": "AlreadyCollected",
      "type": "error"
    },
    {
      "inputs": [],
      "name": "CollectInactive",
      "type": "error"
    },
    {
      "inputs": [
        {
          "internalType": "string",
          "name": "where",
          "type": "string"
        }
      ],
      "name": "ConfigError",
      "type": "error"
    },
    {
      "inputs": [],
      "name": "ErrorInIds",
      "type": "error"
    },
    {
      "inputs": [],
      "name": "HelixNotConfigured",
      "type": "error"
    },
    {
      "inputs": [],
      "name": "NotAuthorized",
      "type": "error"
    },
    {
      "inputs": [],
      "name": "NotClaimable",
      "type": "error"
    },
    {
      "inputs": [],
      "name": "PrivateEventOnly",
      "type": "error"
    },
    {
      "inputs": [],
      "name": "WithdrawError",
      "type": "error"
    },
    {
      "inputs": [],
      "name": "WrongHelix",
      "type": "error"
    },
    {
      "inputs": [],
      "name": "WrongValue",
      "type": "error"
    },
    {
      "anonymous": false,
      "inputs": [
        {
          "indexed": false,
          "internalType": "bool",
          "name": "isActive",
          "type": "bool"
        }
      ],
      "name": "CollectActiveChanged",
      "type": "event"
    },
    {
      "anonymous": false,
      "inputs": [
        {
          "indexed": false,
          "internalType": "uint256",
          "name": "helix",
          "type": "uint256"
        }
      ],
      "name": "CurrentHelixChanged",
      "type": "event"
    },
    {
      "anonymous": false,
      "inputs": [
        {
          "indexed": false,
          "internalType": "uint256",
          "name": "helix",
          "type": "uint256"
        }
      ],
      "name": "HelixChanged",
      "type": "event"
    },
    {
      "anonymous": false,
      "inputs": [
        {
          "indexed": false,
          "internalType": "string",
          "name": "contractURI",
          "type": "string"
        }
      ],
      "name": "NewContractURI",
      "type": "event"
    },
    {
      "anonymous": false,
      "inputs": [
        {
          "indexed": true,
          "internalType": "address",
          "name": "previousOwner",
          "type": "address"
        },
        {
          "indexed": true,
          "internalType": "address",
          "name": "newOwner",
          "type": "address"
        }
      ],
      "name": "OwnershipTransferred",
      "type": "event"
    },
    {
      "inputs": [],
      "name": "allowancesSigner",
      "outputs": [
        {
          "internalType": "address",
          "name": "",
          "type": "address"
        }
      ],
      "stateMutability": "view",
      "type": "function"
    },
    {
      "inputs": [],
      "name": "baseURI",
      "outputs": [
        {
          "internalType": "string",
          "name": "",
          "type": "string"
        }
      ],
      "stateMutability": "view",
      "type": "function"
    },
    {
      "inputs": [
        {
          "internalType": "uint16",
          "name": "tokenId",
          "type": "uint16"
        }
      ],
      "name": "collect",
      "outputs": [],
      "stateMutability": "payable",
      "type": "function"
    },
    {
      "inputs": [],
      "name": "collectActive",
      "outputs": [
        {
          "internalType": "bool",
          "name": "",
          "type": "bool"
        }
      ],
      "stateMutability": "view",
      "type": "function"
    },
    {
      "inputs": [
        {
          "internalType": "uint16",
          "name": "tokenId",
          "type": "uint16"
        },
        {
          "internalType": "uint256",
          "name": "nonce",
          "type": "uint256"
        },
        {
          "internalType": "bytes",
          "name": "signature",
          "type": "bytes"
        }
      ],
      "name": "collectWithSignature",
      "outputs": [],
      "stateMutability": "payable",
      "type": "function"
    },
    {
      "inputs": [
        {
          "internalType": "uint256",
          "name": "helixId",
          "type": "uint256"
        },
        {
          "internalType": "uint16",
          "name": "startId",
          "type": "uint16"
        },
        {
          "internalType": "uint16",
          "name": "endId",
          "type": "uint16"
        },
        {
          "internalType": "uint256",
          "name": "price",
          "type": "uint256"
        },
        {
          "internalType": "address",
          "name": "signer",
          "type": "address"
        }
      ],
      "name": "configureHelix",
      "outputs": [],
      "stateMutability": "nonpayable",
      "type": "function"
    },
    {
      "inputs": [],
      "name": "contractURI",
      "outputs": [
        {
          "internalType": "string",
          "name": "",
          "type": "string"
        }
      ],
      "stateMutability": "view",
      "type": "function"
    },
    {
      "inputs": [
        {
          "internalType": "address",
          "name": "account",
          "type": "address"
        },
        {
          "internalType": "uint256",
          "name": "nonce",
          "type": "uint256"
        }
      ],
      "name": "createMessage",
      "outputs": [
        {
          "internalType": "bytes32",
          "name": "",
          "type": "bytes32"
        }
      ],
      "stateMutability": "view",
      "type": "function"
    },
    {
      "inputs": [
        {
          "internalType": "address[]",
          "name": "accounts",
          "type": "address[]"
        },
        {
          "internalType": "uint256[]",
          "name": "nonces",
          "type": "uint256[]"
        }
      ],
      "name": "createMessages",
      "outputs": [
        {
          "internalType": "bytes32[]",
          "name": "messages",
          "type": "bytes32[]"
        }
      ],
      "stateMutability": "view",
      "type": "function"
    },
    {
      "inputs": [],
      "name": "currentHelixId",
      "outputs": [
        {
          "internalType": "uint256",
          "name": "",
          "type": "uint256"
        }
      ],
      "stateMutability": "view",
      "type": "function"
    },
    {
      "inputs": [
        {
          "internalType": "uint256",
          "name": "tokenId",
          "type": "uint256"
        }
      ],
      "name": "getPrice",
      "outputs": [
        {
          "internalType": "uint256",
          "name": "",
          "type": "uint256"
        }
      ],
      "stateMutability": "view",
      "type": "function"
    },
    {
      "inputs": [
        {
          "internalType": "uint16",
          "name": "tokenId",
          "type": "uint16"
        },
        {
          "internalType": "address",
          "name": "recipient",
          "type": "address"
        }
      ],
      "name": "gift",
      "outputs": [],
      "stateMutability": "nonpayable",
      "type": "function"
    },
    {
      "inputs": [
        {
          "internalType": "uint256",
          "name": "",
          "type": "uint256"
        }
      ],
      "name": "helixes",
      "outputs": [
        {
          "internalType": "uint16",
          "name": "startId",
          "type": "uint16"
        },
        {
          "internalType": "uint16",
          "name": "endId",
          "type": "uint16"
        },
        {
          "internalType": "address",
          "name": "signer",
          "type": "address"
        },
        {
          "internalType": "uint256",
          "name": "price",
          "type": "uint256"
        }
      ],
      "stateMutability": "view",
      "type": "function"
    },
    {
      "inputs": [],
      "name": "nftContract",
      "outputs": [
        {
          "internalType": "address",
          "name": "",
          "type": "address"
        }
      ],
      "stateMutability": "view",
      "type": "function"
    },
    {
      "inputs": [
        {
          "internalType": "uint256",
          "name": "helixId",
          "type": "uint256"
        },
        {
          "internalType": "uint256",
          "name": "nonce",
          "type": "uint256"
        }
      ],
      "name": "nonceForHelix",
      "outputs": [
        {
          "internalType": "uint256",
          "name": "",
          "type": "uint256"
        }
      ],
      "stateMutability": "pure",
      "type": "function"
    },
    {
      "inputs": [],
      "name": "onAttach",
      "outputs": [
        {
          "internalType": "bool",
          "name": "",
          "type": "bool"
        }
      ],
      "stateMutability": "nonpayable",
      "type": "function"
    },
    {
      "inputs": [],
      "name": "onDisable",
      "outputs": [],
      "stateMutability": "nonpayable",
      "type": "function"
    },
    {
      "inputs": [],
      "name": "onEnable",
      "outputs": [
        {
          "internalType": "bool",
          "name": "",
          "type": "bool"
        }
      ],
      "stateMutability": "pure",
      "type": "function"
    },
    {
      "inputs": [
        {
          "internalType": "uint256",
          "name": "tokenId",
          "type": "uint256"
        },
        {
          "internalType": "string",
          "name": "newTokenURI",
          "type": "string"
        }
      ],
      "name": "overrideTokenURI",
      "outputs": [],
      "stateMutability": "nonpayable",
      "type": "function"
    },
    {
      "inputs": [],
      "name": "owner",
      "outputs": [
        {
          "internalType": "address",
          "name": "",
          "type": "address"
        }
      ],
      "stateMutability": "view",
      "type": "function"
    },
    {
      "inputs": [],
      "name": "renounceOwnership",
      "outputs": [],
      "stateMutability": "nonpayable",
      "type": "function"
    },
    {
      "inputs": [],
      "name": "royaltiesRecipient",
      "outputs": [
        {
          "internalType": "address",
          "name": "",
          "type": "address"
        }
      ],
      "stateMutability": "view",
      "type": "function"
    },
    {
      "inputs": [
        {
          "internalType": "address",
          "name": "",
          "type": "address"
        },
        {
          "internalType": "uint256",
          "name": "",
          "type": "uint256"
        }
      ],
      "name": "royaltyInfo",
      "outputs": [
        {
          "internalType": "address",
          "name": "receiver",
          "type": "address"
        },
        {
          "internalType": "uint256",
          "name": "basisPoint",
          "type": "uint256"
        }
      ],
      "stateMutability": "view",
      "type": "function"
    },
    {
      "inputs": [
        {
          "internalType": "uint256",
          "name": "tokenId",
          "type": "uint256"
        }
      ],
      "name": "royaltyInfo",
      "outputs": [
        {
          "internalType": "address",
          "name": "",
          "type": "address"
        },
        {
          "internalType": "uint256",
          "name": "",
          "type": "uint256"
        }
      ],
      "stateMutability": "view",
      "type": "function"
    },
    {
      "inputs": [
        {
          "internalType": "string",
          "name": "newBaseURI",
          "type": "string"
        }
      ],
      "name": "setBaseURI",
      "outputs": [],
      "stateMutability": "nonpayable",
      "type": "function"
    },
    {
      "inputs": [
        {
          "internalType": "bool",
          "name": "isActive",
          "type": "bool"
        }
      ],
      "name": "setCollectActive",
      "outputs": [],
      "stateMutability": "nonpayable",
      "type": "function"
    },
    {
      "inputs": [
        {
          "internalType": "string",
          "name": "newURI",
          "type": "string"
        }
      ],
      "name": "setContractURI",
      "outputs": [],
      "stateMutability": "nonpayable",
      "type": "function"
    },
    {
      "inputs": [
        {
          "internalType": "uint256",
          "name": "newHelix",
          "type": "uint256"
        }
      ],
      "name": "setCurrentHelix",
      "outputs": [],
      "stateMutability": "nonpayable",
      "type": "function"
    },
    {
      "inputs": [
        {
          "internalType": "uint256",
          "name": "helixId",
          "type": "uint256"
        },
        {
          "internalType": "uint16",
          "name": "startId",
          "type": "uint16"
        },
        {
          "internalType": "uint16",
          "name": "endId",
          "type": "uint16"
        }
      ],
      "name": "setHelixIds",
      "outputs": [],
      "stateMutability": "nonpayable",
      "type": "function"
    },
    {
      "inputs": [
        {
          "internalType": "uint256",
          "name": "helixId",
          "type": "uint256"
        },
        {
          "internalType": "uint256",
          "name": "price",
          "type": "uint256"
        }
      ],
      "name": "setHelixPrice",
      "outputs": [],
      "stateMutability": "nonpayable",
      "type": "function"
    },
    {
      "inputs": [
        {
          "internalType": "uint256",
          "name": "helixId",
          "type": "uint256"
        },
        {
          "internalType": "address",
          "name": "signer",
          "type": "address"
        }
      ],
      "name": "setHelixSigner",
      "outputs": [],
      "stateMutability": "nonpayable",
      "type": "function"
    },
    {
      "inputs": [
        {
          "internalType": "address",
          "name": "nftContract_",
          "type": "address"
        }
      ],
      "name": "setNFTContract",
      "outputs": [],
      "stateMutability": "nonpayable",
      "type": "function"
    },
    {
      "inputs": [
        {
          "internalType": "address",
          "name": "newRecipient",
          "type": "address"
        }
      ],
      "name": "setRoyaltiesRecipient",
      "outputs": [],
      "stateMutability": "nonpayable",
      "type": "function"
    },
    {
      "inputs": [
        {
          "internalType": "bytes4",
          "name": "interfaceId",
          "type": "bytes4"
        }
      ],
      "name": "supportsInterface",
      "outputs": [
        {
          "internalType": "bool",
          "name": "",
          "type": "bool"
        }
      ],
      "stateMutability": "view",
      "type": "function"
    },
    {
      "inputs": [
        {
          "internalType": "uint256",
          "name": "tokenId",
          "type": "uint256"
        }
      ],
      "name": "tokenURI",
      "outputs": [
        {
          "internalType": "string",
          "name": "",
          "type": "string"
        }
      ],
      "stateMutability": "view",
      "type": "function"
    },
    {
      "inputs": [
        {
          "internalType": "address",
          "name": "",
          "type": "address"
        },
        {
          "internalType": "uint256",
          "name": "tokenId",
          "type": "uint256"
        }
      ],
      "name": "tokenURI",
      "outputs": [
        {
          "internalType": "string",
          "name": "",
          "type": "string"
        }
      ],
      "stateMutability": "view",
      "type": "function"
    },
    {
      "inputs": [
        {
          "internalType": "uint256",
          "name": "",
          "type": "uint256"
        }
      ],
      "name": "tokenURIOverride",
      "outputs": [
        {
          "internalType": "string",
          "name": "",
          "type": "string"
        }
      ],
      "stateMutability": "view",
      "type": "function"
    },
    {
      "inputs": [
        {
          "internalType": "address",
          "name": "newOwner",
          "type": "address"
        }
      ],
      "name": "transferOwnership",
      "outputs": [],
      "stateMutability": "nonpayable",
      "type": "function"
    },
    {
      "inputs": [
        {
          "internalType": "bytes32",
          "name": "",
          "type": "bytes32"
        }
      ],
      "name": "usedAllowances",
      "outputs": [
        {
          "internalType": "bool",
          "name": "",
          "type": "bool"
        }
      ],
      "stateMutability": "view",
      "type": "function"
    },
    {
      "inputs": [
        {
          "internalType": "address",
          "name": "account",
          "type": "address"
        },
        {
          "internalType": "uint256",
          "name": "nonce",
          "type": "uint256"
        },
        {
          "internalType": "bytes",
          "name": "signature",
          "type": "bytes"
        }
      ],
      "name": "validateSignature",
      "outputs": [
        {
          "internalType": "bytes32",
          "name": "",
          "type": "bytes32"
        }
      ],
      "stateMutability": "view",
      "type": "function"
    },
    {
      "inputs": [],
      "name": "withdraw",
      "outputs": [],
      "stateMutability": "nonpayable",
      "type": "function"
    },
    {
      "stateMutability": "payable",
      "type": "receive"
    }
  ],
  "transactionHash": "0x67c3e777d61b77db5b4a22c18d746989405366cfb78433d33ad0c885e68c802a",
  "args": [
    "",
    "ipfs://QmeSaNkm8RRbJ1eTxeY7UjUWxWpGG5WZN31hkGEsXPjaa1/",
    "0xD1edDfcc4596CC8bD0bd7495beaB9B979fc50336",
    "0x0000000000000000000000000000000000000000"
  ],
  "numDeployments": 3,
  "solcInputHash": "edffa8d5358ec64459a76abd59c918f1",
  "bytecode": "0x60806040523480156200001157600080fd5b5060405162002eab38038062002eab8339810160408190526200003491620005b6565b8362000040336200019d565b6200004b81620001ed565b5082516200008b576040516307985a7560e01b81526020600482015260076024820152666261736555524960c81b60448201526064015b60405180910390fd5b6001600160a01b038216620000cd576040516307985a7560e01b815260206004820152600660248201526539b4b3b732b960d11b604482015260640162000082565b620000e06000600161012c82866200023f565b620000f9600180606466038d7ea4c6800060006200023f565b620001136002606560c866071afd498d000060006200023f565b6200012e600360c961012c660aa87bee53800060006200023f565b82516200014390600690602086019062000419565b506001600160a01b038116156200015f576200015f8162000359565b604051600081527fcc65c00b63c085ef56a441de436d8e733d0402287c6b1c7ebe41cbb4d9877e819060200160405180910390a150505050620006b7565b600080546001600160a01b038381166001600160a01b0319831681178455604051919092169283917f8be0079c531659141344cd1fd0a4f28419497f9722a3daafe3b4186f6b6457e09190a35050565b80516200020290600390602084019062000419565b507fdf1280b84eee5cd4ce59294c59ec7288bd49034d7f3d142f57ba9b47791563648160405162000234919062000645565b60405180910390a150565b6000546001600160a01b031633146200028a5760405162461bcd60e51b8152602060048201819052602482015260008051602062002e8b833981519152604482015260640162000082565b6040805160808101825261ffff808716825285811660208084019182526001600160a01b038087168587019081526060860189815260008d8152600a90945292879020955186549451915190921664010000000002600160201b600160c01b0319918616620100000263ffffffff199095169290951691909117929092179190911691909117825551600190910155517fa2ff335c1e8f4453e83546c0a966369c53f3e27cc4dcacbc2973964cd5583811906200034a9087815260200190565b60405180910390a15050505050565b6000546001600160a01b03163314620003a45760405162461bcd60e51b8152602060048201819052602482015260008051602062002e8b833981519152604482015260640162000082565b6001600160a01b0381166200040b5760405162461bcd60e51b815260206004820152602660248201527f4f776e61626c653a206e6577206f776e657220697320746865207a65726f206160448201526564647265737360d01b606482015260840162000082565b62000416816200019d565b50565b82805462000427906200067a565b90600052602060002090601f0160209004810192826200044b576000855562000496565b82601f106200046657805160ff191683800117855562000496565b8280016001018555821562000496579182015b828111156200049657825182559160200191906001019062000479565b50620004a4929150620004a8565b5090565b5b80821115620004a45760008155600101620004a9565b634e487b7160e01b600052604160045260246000fd5b60005b83811015620004f2578181015183820152602001620004d8565b8381111562000502576000848401525b50505050565b600082601f8301126200051a57600080fd5b81516001600160401b0380821115620005375762000537620004bf565b604051601f8301601f19908116603f01168101908282118183101715620005625762000562620004bf565b816040528381528660208588010111156200057c57600080fd5b6200058f846020830160208901620004d5565b9695505050505050565b80516001600160a01b0381168114620005b157600080fd5b919050565b60008060008060808587031215620005cd57600080fd5b84516001600160401b0380821115620005e557600080fd5b620005f38883890162000508565b955060208701519150808211156200060a57600080fd5b50620006198782880162000508565b9350506200062a6040860162000599565b91506200063a6060860162000599565b905092959194509250565b602081526000825180602084015262000666816040850160208701620004d5565b601f01601f19169190910160400192915050565b600181811c908216806200068f57607f821691505b60208210811415620006b157634e487b7160e01b600052602260045260246000fd5b50919050565b6127c480620006c76000396000f3fe60806040526004361061024a5760003560e01c80638da5cb5b11610139578063c8966244116100b6578063e8a3d4851161007a578063e8a3d48514610774578063e9dc637514610789578063ec7557d3146107a9578063ed1b3144146107bf578063f2fde38b146107d4578063feff1999146107f457600080fd5b8063c8966244146106e1578063cef6d36814610701578063d56d229d14610721578063e4bfcc6014610741578063e75722301461075457600080fd5b8063b967810b116100fd578063b967810b14610627578063ba13b5fd1461066e578063bb77e79614610681578063c50b87be146106a1578063c87b56dd146106c157600080fd5b80638da5cb5b14610529578063938e3d7b146105475780639906b9fb14610567578063a7ccabdf146105f3578063b079ac901461061357600080fd5b80635d7d02cb116101c7578063777c4ec41161018b578063777c4ec41461047d57806382d54e8b1461049d5780638838b5c3146104bd578063890621da146104db5780638928b9ff1461050957600080fd5b80635d7d02cb146103d957806364499494146103f95780636c0360eb146104195780636c4a412c1461043b578063715018a61461046857600080fd5b80632782d6c71161020e5780632782d6c7146103365780633ccfd60b146103755780634c85eb1f1461038a57806355f804b3146103995780635b4a505d146103b957600080fd5b806301ffc9a714610256578063035d6ea51461028b57806305d4eef9146102ac578063195e8708146102ce5780631d96a082146102fe57600080fd5b3661025157005b600080fd5b34801561026257600080fd5b50610276610271366004611f19565b610814565b60405190151581526020015b60405180910390f35b34801561029757600080fd5b5060075461027690600160a01b900460ff1681565b3480156102b857600080fd5b506102cc6102c7366004611f76565b610866565b005b3480156102da57600080fd5b506102766102e9366004611fd1565b60046020526000908152604090205460ff1681565b34801561030a57600080fd5b5060095461031e906001600160a01b031681565b6040516001600160a01b039091168152602001610282565b34801561034257600080fd5b50610356610351366004611fea565b610956565b604080516001600160a01b039093168352602083019190915201610282565b34801561038157600080fd5b506102cc610983565b34801561039657600080fd5b50005b3480156103a557600080fd5b506102cc6103b4366004612016565b610a2a565b3480156103c557600080fd5b506102cc6103d4366004612088565b610a65565b3480156103e557600080fd5b506102cc6103f436600461216f565b610b11565b34801561040557600080fd5b506102cc610414366004611fd1565b610b5a565b34801561042557600080fd5b5061042e610bf6565b60405161028291906121e2565b34801561044757600080fd5b5061045b6104563660046122a4565b610c84565b604051610282919061235c565b34801561047457600080fd5b506102cc610d8f565b34801561048957600080fd5b506102cc6104983660046123a0565b610dc3565b3480156104a957600080fd5b506102cc6104b83660046123dc565b610ea5565b3480156104c957600080fd5b506005546001600160a01b031661031e565b3480156104e757600080fd5b506104fb6104f6366004612408565b610f00565b604051908152602001610282565b34801561051557600080fd5b506102cc610524366004612461565b610f27565b34801561053557600080fd5b506000546001600160a01b031661031e565b34801561055357600080fd5b506102cc610562366004612483565b610fad565b34801561057357600080fd5b506105bf610582366004611fd1565b600a602052600090815260409020805460019091015461ffff80831692620100008104909116916401000000009091046001600160a01b03169084565b6040805161ffff95861681529490931660208501526001600160a01b03909116918301919091526060820152608001610282565b3480156105ff57600080fd5b506102cc61060e3660046124b8565b610fe3565b34801561061f57600080fd5b506001610276565b34801561063357600080fd5b506104fb610642366004612461565b604080516020808201949094528082019290925280518083038201815260609092019052805191012090565b6102cc61067c3660046124d5565b61102f565b34801561068d57600080fd5b5061042e61069c366004611fd1565b611146565b3480156106ad57600080fd5b506102cc6106bc3660046124b8565b61115f565b3480156106cd57600080fd5b5061042e6106dc366004611fd1565b6111c5565b3480156106ed57600080fd5b506102cc6106fc3660046124f3565b6111d1565b34801561070d57600080fd5b5061035661071c366004611fd1565b611248565b34801561072d57600080fd5b5060075461031e906001600160a01b031681565b6102cc61074f366004612515565b61125e565b34801561076057600080fd5b506104fb61076f366004611fd1565b611318565b34801561078057600080fd5b5061042e611443565b34801561079557600080fd5b5061042e6107a4366004611fea565b6114d5565b3480156107b557600080fd5b506104fb60085481565b3480156107cb57600080fd5b506102766115cd565b3480156107e057600080fd5b506102cc6107ef3660046124b8565b6115fe565b34801561080057600080fd5b506104fb61080f366004611fea565b611696565b60006001600160e01b03198216630434e6b560e31b148061084557506001600160e01b0319821663e97405af60e01b145b8061086057506301ffc9a760e01b6001600160e01b03198316145b92915050565b6000546001600160a01b031633146108995760405162461bcd60e51b815260040161089090612530565b60405180910390fd5b6040805160808101825261ffff808716825285811660208084019182526001600160a01b038087168587019081526060860189815260008d8152600a90945292879020955186549451915190921664010000000002640100000000600160c01b0319918616620100000263ffffffff1990951692909516919091179290921791909116919091178255516001909101555160008051602061276f833981519152906109479087815260200190565b60405180910390a15050505050565b6009546001600160a01b0316600081610978576000546001600160a01b031691505b50926103e892509050565b6000546001600160a01b031633146109ad5760405162461bcd60e51b815260040161089090612530565b600080546040516001600160a01b039091169190829047908381818185875af1925050503d80600081146109fd576040519150601f19603f3d011682016040523d82523d6000602084013e610a02565b606091505b5050905080610a245760405163351dc55d60e21b815260040160405180910390fd5b5050565b565b6000546001600160a01b03163314610a545760405162461bcd60e51b815260040161089090612530565b610a6060068383611e0c565b505050565b6000546001600160a01b03163314610a8f5760405162461bcd60e51b815260040161089090612530565b6000828152600a60205260409020805462010000900461ffff16610ac657604051631ee8d69960e01b815260040160405180910390fd5b8054640100000000600160c01b0319166401000000006001600160a01b0384160217815560405183815260008051602061276f833981519152906020015b60405180910390a1505050565b6000546001600160a01b03163314610b3b5760405162461bcd60e51b815260040161089090612530565b6000828152600b602090815260409091208251610a6092840190611e90565b6000546001600160a01b03163314610b845760405162461bcd60e51b815260040161089090612530565b6000818152600a602052604090205462010000900461ffff16610bba57604051631ee8d69960e01b815260040160405180910390fd5b60088190556040518181527fcc65c00b63c085ef56a441de436d8e733d0402287c6b1c7ebe41cbb4d9877e81906020015b60405180910390a150565b60068054610c0390612565565b80601f0160208091040260200160405190810160405280929190818152602001828054610c2f90612565565b8015610c7c5780601f10610c5157610100808354040283529160200191610c7c565b820191906000526020600020905b815481529060010190602001808311610c5f57829003601f168201915b505050505081565b60608151835114610ccb5760405162461bcd60e51b8152602060048201526011602482015270214c454e4754485f4d49534d415443482160781b6044820152606401610890565b825167ffffffffffffffff811115610ce557610ce56120b8565b604051908082528060200260200182016040528015610d0e578160200160208202803683370190505b50905060005b8351811015610d8857610d59848281518110610d3257610d326125a0565b6020026020010151848381518110610d4c57610d4c6125a0565b6020026020010151611696565b828281518110610d6b57610d6b6125a0565b602090810291909101015280610d80816125cc565b915050610d14565b5092915050565b6000546001600160a01b03163314610db95760405162461bcd60e51b815260040161089090612530565b610a2860006116d9565b6000546001600160a01b03163314610ded5760405162461bcd60e51b815260040161089090612530565b8061ffff168261ffff161180610e05575061ffff8116155b15610e2357604051630baa894960e11b815260040160405180910390fd5b6000838152600a60205260409020805462010000900461ffff16610e5a57604051631ee8d69960e01b815260040160405180910390fd5b805461ffff838116620100000263ffffffff199092169085161717815560405160008051602061276f83398151915290610e979086815260200190565b60405180910390a150505050565b6000546001600160a01b03163314610ecf5760405162461bcd60e51b815260040161089090612530565b604080516080810182526001815261012c602082015260009181018290526060810191909152610a60818484611729565b6000610f1f848484610f1a6005546001600160a01b031690565b611842565b949350505050565b6000546001600160a01b03163314610f515760405162461bcd60e51b815260040161089090612530565b6000828152600a60205260409020805462010000900461ffff16610f8857604051631ee8d69960e01b815260040160405180910390fd5b6001810182905560405183815260008051602061276f83398151915290602001610b04565b6000546001600160a01b03163314610fd75760405162461bcd60e51b815260040161089090612530565b610fe081611960565b50565b6000546001600160a01b0316331461100d5760405162461bcd60e51b815260040161089090612530565b600780546001600160a01b0319166001600160a01b0392909216919091179055565b6008546000818152600a60209081526040918290208251608081018452815461ffff808216835262010000820416938201939093526401000000009092046001600160a01b0316928201929092526001909101546060820152600754600160a01b900460ff166110b25760405163f89cd0eb60e01b815260040160405180910390fd5b60408101516001600160a01b03166110dd57604051633123d42760e11b815260040160405180910390fd5b6040805160208082018590528183018790528251808303840181526060909201909252805191012060006111173383878660400151611842565b6000818152600460205260409020805460ff19166001179055905061113d838833611729565b50505050505050565b600b6020526000908152604090208054610c0390612565565b6009546001600160a01b0316331480159061118557506000546001600160a01b03163314155b156111a35760405163ea8e4eb560e01b815260040160405180910390fd5b600980546001600160a01b0319166001600160a01b0392909216919091179055565b606061086033836114d5565b6000546001600160a01b031633146111fb5760405162461bcd60e51b815260040161089090612530565b60078054821515600160a01b0260ff60a01b199091161790556040517f40ef16dfbd2f4c9db7d4b66b5a84c42028cdc60338dce0eb9bd4e8b1b1961e4490610beb90831515815260200190565b6000806112553384610956565b91509150915091565b6008546000818152600a60209081526040918290208251608081018452815461ffff808216835262010000820416938201939093526401000000009092046001600160a01b0316928201929092526001909101546060820152600754600160a01b900460ff166112e15760405163f89cd0eb60e01b815260040160405180910390fd5b60408101516001600160a01b03161561130d5760405163cb559a0760e01b815260040160405180910390fd5b610a60818433611729565b6008546000818152600a602090815260408083208151608081018352815461ffff8082168084526201000083049091169583019590955264010000000090046001600160a01b031692810192909252600101546060820152919291908410806113885750806020015161ffff1684115b156113a657604051639e4e47f560e01b815260040160405180910390fd5b6007546040516331a9108f60e11b8152600481018690526001600160a01b0390911690636352211e9060240160206040518083038186803b1580156113ea57600080fd5b505afa92505050801561141a575060408051601f3d908101601f19168201909252611417918101906125e7565b60015b61142957606001519392505050565b50604051632340e67360e21b815260040160405180910390fd5b60606003805461145290612565565b80601f016020809104026020016040519081016040528092919081815260200182805461147e90612565565b80156114cb5780601f106114a0576101008083540402835291602001916114cb565b820191906000526020600020905b8154815290600101906020018083116114ae57829003601f168201915b5050505050905090565b6000818152600b60205260408120805460609291906114f390612565565b80601f016020809104026020016040519081016040528092919081815260200182805461151f90612565565b801561156c5780601f106115415761010080835404028352916020019161156c565b820191906000526020600020905b81548152906001019060200180831161154f57829003601f168201915b50505050509050600081511115611584579050610860565b60066115a461159460058661261a565b61159f90600161262e565b6119a3565b6040516020016115b5929190612662565b60405160208183030381529060405291505092915050565b6007546000906001600160a01b03166115f85750600780546001600160a01b03191633179055600190565b50600090565b6000546001600160a01b031633146116285760405162461bcd60e51b815260040161089090612530565b6001600160a01b03811661168d5760405162461bcd60e51b815260206004820152602660248201527f4f776e61626c653a206e6577206f776e657220697320746865207a65726f206160448201526564647265737360d01b6064820152608401610890565b610fe0816116d9565b604080516001600160a01b038416602082015290810182905230606082015260009060800160405160208183030381529060405280519060200120905092915050565b600080546001600160a01b038381166001600160a01b0319831681178455604051919092169283917f8be0079c531659141344cd1fd0a4f28419497f9722a3daafe3b4186f6b6457e09190a35050565b826000015161ffff168261ffff16108061174e5750826020015161ffff168261ffff16115b1561176c57604051639e4e47f560e01b815260040160405180910390fd5b8260600151341461179057604051632635240760e21b815260040160405180910390fd5b600754604051637971ab0f60e11b81526001600160a01b03838116600483015260c06024830152600060c4830181905261ffff86166044840152606483018190526084830181905260a48301529091169063f2e3561e9060e401602060405180830381600087803b15801561180457600080fd5b505af1158015611818573d6000803e3d6000fd5b505050506040513d601f19601f8201168201806040525081019061183c9190612714565b50505050565b6000806118a56118528787611696565b6040517f19457468657265756d205369676e6564204d6573736167653a0a3332000000006020820152603c8101829052600090605c01604051602081830303815290604052805190602001209050919050565b90506001600160a01b0383166118bb8286611aa1565b6001600160a01b0316146119075760405162461bcd60e51b815260206004820152601360248201527221494e56414c49445f5349474e41545552452160681b6044820152606401610890565b60008181526004602052604090205460ff16156119575760405162461bcd60e51b815260206004820152600e60248201526d21414c52454144595f555345442160901b6044820152606401610890565b95945050505050565b8051611973906003906020840190611e90565b507fdf1280b84eee5cd4ce59294c59ec7288bd49034d7f3d142f57ba9b477915636481604051610beb91906121e2565b6060816119c75750506040805180820190915260018152600360fc1b602082015290565b8160005b81156119f157806119db816125cc565b91506119ea9050600a8361272d565b91506119cb565b60008167ffffffffffffffff811115611a0c57611a0c6120b8565b6040519080825280601f01601f191660200182016040528015611a36576020820181803683370190505b5090505b8415610f1f57611a4b600183612741565b9150611a58600a8661261a565b611a6390603061262e565b60f81b818381518110611a7857611a786125a0565b60200101906001600160f81b031916908160001a905350611a9a600a8661272d565b9450611a3a565b6000806000611ab08585611ac5565b91509150611abd81611b35565b509392505050565b600080825160411415611afc5760208301516040840151606085015160001a611af087828585611cf0565b94509450505050611b2e565b825160401415611b265760208301516040840151611b1b868383611ddd565b935093505050611b2e565b506000905060025b9250929050565b6000816004811115611b4957611b49612758565b1415611b525750565b6001816004811115611b6657611b66612758565b1415611bb45760405162461bcd60e51b815260206004820152601860248201527f45434453413a20696e76616c6964207369676e617475726500000000000000006044820152606401610890565b6002816004811115611bc857611bc8612758565b1415611c165760405162461bcd60e51b815260206004820152601f60248201527f45434453413a20696e76616c6964207369676e6174757265206c656e677468006044820152606401610890565b6003816004811115611c2a57611c2a612758565b1415611c835760405162461bcd60e51b815260206004820152602260248201527f45434453413a20696e76616c6964207369676e6174757265202773272076616c604482015261756560f01b6064820152608401610890565b6004816004811115611c9757611c97612758565b1415610fe05760405162461bcd60e51b815260206004820152602260248201527f45434453413a20696e76616c6964207369676e6174757265202776272076616c604482015261756560f01b6064820152608401610890565b6000807f7fffffffffffffffffffffffffffffff5d576e7357a4501ddfe92f46681b20a0831115611d275750600090506003611dd4565b8460ff16601b14158015611d3f57508460ff16601c14155b15611d505750600090506004611dd4565b6040805160008082526020820180845289905260ff881692820192909252606081018690526080810185905260019060a0016020604051602081039080840390855afa158015611da4573d6000803e3d6000fd5b5050604051601f1901519150506001600160a01b038116611dcd57600060019250925050611dd4565b9150600090505b94509492505050565b6000806001600160ff1b03831660ff84901c601b01611dfe87828885611cf0565b935093505050935093915050565b828054611e1890612565565b90600052602060002090601f016020900481019282611e3a5760008555611e80565b82601f10611e535782800160ff19823516178555611e80565b82800160010185558215611e80579182015b82811115611e80578235825591602001919060010190611e65565b50611e8c929150611f04565b5090565b828054611e9c90612565565b90600052602060002090601f016020900481019282611ebe5760008555611e80565b82601f10611ed757805160ff1916838001178555611e80565b82800160010185558215611e80579182015b82811115611e80578251825591602001919060010190611ee9565b5b80821115611e8c5760008155600101611f05565b600060208284031215611f2b57600080fd5b81356001600160e01b031981168114611f4357600080fd5b9392505050565b803561ffff81168114611f5c57600080fd5b919050565b6001600160a01b0381168114610fe057600080fd5b600080600080600060a08688031215611f8e57600080fd5b85359450611f9e60208701611f4a565b9350611fac60408701611f4a565b9250606086013591506080860135611fc381611f61565b809150509295509295909350565b600060208284031215611fe357600080fd5b5035919050565b60008060408385031215611ffd57600080fd5b823561200881611f61565b946020939093013593505050565b6000806020838503121561202957600080fd5b823567ffffffffffffffff8082111561204157600080fd5b818501915085601f83011261205557600080fd5b81358181111561206457600080fd5b86602082850101111561207657600080fd5b60209290920196919550909350505050565b6000806040838503121561209b57600080fd5b8235915060208301356120ad81611f61565b809150509250929050565b634e487b7160e01b600052604160045260246000fd5b604051601f8201601f1916810167ffffffffffffffff811182821017156120f7576120f76120b8565b604052919050565b600082601f83011261211057600080fd5b813567ffffffffffffffff81111561212a5761212a6120b8565b61213d601f8201601f19166020016120ce565b81815284602083860101111561215257600080fd5b816020850160208301376000918101602001919091529392505050565b6000806040838503121561218257600080fd5b82359150602083013567ffffffffffffffff8111156121a057600080fd5b6121ac858286016120ff565b9150509250929050565b60005b838110156121d15781810151838201526020016121b9565b8381111561183c5750506000910152565b60208152600082518060208401526122018160408501602087016121b6565b601f01601f19169190910160400192915050565b600067ffffffffffffffff82111561222f5761222f6120b8565b5060051b60200190565b600082601f83011261224a57600080fd5b8135602061225f61225a83612215565b6120ce565b82815260059290921b8401810191818101908684111561227e57600080fd5b8286015b848110156122995780358352918301918301612282565b509695505050505050565b600080604083850312156122b757600080fd5b823567ffffffffffffffff808211156122cf57600080fd5b818501915085601f8301126122e357600080fd5b813560206122f361225a83612215565b82815260059290921b8401810191818101908984111561231257600080fd5b948201945b8386101561233957853561232a81611f61565b82529482019490820190612317565b9650508601359250508082111561234f57600080fd5b506121ac85828601612239565b6020808252825182820181905260009190848201906040850190845b8181101561239457835183529284019291840191600101612378565b50909695505050505050565b6000806000606084860312156123b557600080fd5b833592506123c560208501611f4a565b91506123d360408501611f4a565b90509250925092565b600080604083850312156123ef57600080fd5b6123f883611f4a565b915060208301356120ad81611f61565b60008060006060848603121561241d57600080fd5b833561242881611f61565b925060208401359150604084013567ffffffffffffffff81111561244b57600080fd5b612457868287016120ff565b9150509250925092565b6000806040838503121561247457600080fd5b50508035926020909101359150565b60006020828403121561249557600080fd5b813567ffffffffffffffff8111156124ac57600080fd5b610f1f848285016120ff565b6000602082840312156124ca57600080fd5b8135611f4381611f61565b6000806000606084860312156124ea57600080fd5b61242884611f4a565b60006020828403121561250557600080fd5b81358015158114611f4357600080fd5b60006020828403121561252757600080fd5b611f4382611f4a565b6020808252818101527f4f776e61626c653a2063616c6c6572206973206e6f7420746865206f776e6572604082015260600190565b600181811c9082168061257957607f821691505b6020821081141561259a57634e487b7160e01b600052602260045260246000fd5b50919050565b634e487b7160e01b600052603260045260246000fd5b634e487b7160e01b600052601160045260246000fd5b60006000198214156125e0576125e06125b6565b5060010190565b6000602082840312156125f957600080fd5b8151611f4381611f61565b634e487b7160e01b600052601260045260246000fd5b60008261262957612629612604565b500690565b60008219821115612641576126416125b6565b500190565b600081516126588185602086016121b6565b9290920192915050565b600080845481600182811c91508083168061267e57607f831692505b602080841082141561269e57634e487b7160e01b86526022600452602486fd5b8180156126b257600181146126c3576126f0565b60ff198616895284890196506126f0565b60008b81526020902060005b868110156126e85781548b8201529085019083016126cf565b505084890196505b5050505050506119576127038286612646565b64173539b7b760d91b815260050190565b60006020828403121561272657600080fd5b5051919050565b60008261273c5761273c612604565b500490565b600082821015612753576127536125b6565b500390565b634e487b7160e01b600052602160045260246000fdfea2ff335c1e8f4453e83546c0a966369c53f3e27cc4dcacbc2973964cd5583811a264697066735822122040fd25eaf631eca5d0a93e497dc1bce6f48c2207c70bb2144a9e61546d6131e764736f6c634300080900334f776e61626c653a2063616c6c6572206973206e6f7420746865206f776e6572",
  "devdoc": {
    "author": "Simon Fremaux (@dievardump)",
    "kind": "dev",
    "methods": {
      "allowancesSigner()": {
        "returns": {
          "_0": "the allowance signer address"
        }
      },
      "collect(uint16)": {
        "params": {
          "tokenId": "the token to buy"
        }
      },
      "collectWithSignature(uint16,uint256,bytes)": {
        "params": {
          "nonce": "a simple nonce, allowing more claims for one address",
          "signature": "the signature from helixes[currentHelixId].signer",
          "tokenId": "the tokenId to collect"
        }
      },
      "configureHelix(uint256,uint16,uint16,uint256,address)": {
        "params": {
          "endId": "the highest id to collect when this helix is active",
          "helixId": "the helix to configure",
          "price": "the price of collect for this helix",
          "signer": "the signer address (for private sale helixes)",
          "startId": "the lowest token id to collect when this helix is active"
        }
      },
      "constructor": {
        "params": {
          "contractURI_": "The contract URI (containing its metadata) - can be empty ''",
          "owner_": "Address to whom transfer ownership (can be address(0), then owner is deployer)"
        }
      },
      "contractURI()": {
        "returns": {
          "_0": "the URI where to find information about the module"
        }
      },
      "createMessage(address,uint256)": {
        "params": {
          "account": "the account to allow",
          "nonce": "the nonce"
        },
        "returns": {
          "_0": "the message to sign"
        }
      },
      "createMessages(address[],uint256[])": {
        "params": {
          "accounts": "the accounts to allow",
          "nonces": "the corresponding nonces"
        },
        "returns": {
          "messages": "the messages to sign"
        }
      },
      "getPrice(uint256)": {
        "params": {
          "tokenId": "to check price for"
        }
      },
      "gift(uint16,address)": {
        "params": {
          "recipient": "the recipient to mint to",
          "tokenId": "the tokenId to mint"
        }
      },
      "onAttach()": {
        "returns": {
          "_0": "if the attach worked"
        }
      },
      "onEnable()": {
        "returns": {
          "_0": "if the enabling worked"
        }
      },
      "overrideTokenURI(uint256,string)": {
        "params": {
          "newTokenURI": "the new token uri",
          "tokenId": "tokenId"
        }
      },
      "owner()": {
        "details": "Returns the address of the current owner."
      },
      "renounceOwnership()": {
        "details": "Leaves the contract without owner. It will not be possible to call `onlyOwner` functions anymore. Can only be called by the current owner. NOTE: Renouncing ownership will leave the contract without an owner, thereby removing any functionality that is only available to the owner."
      },
      "royaltyInfo(address,uint256)": {
        "details": "Contrary to EIP2981, modules are expected to return basisPoint for second parameters      This in order to allow right royalties on marketplaces not supporting 2981 (like Rarible)",
        "params": {
          "registry": "registry to check id of",
          "tokenId": "token to check"
        },
        "returns": {
          "receiver": "and basisPoint for this tokenId"
        }
      },
      "royaltyInfo(uint256)": {
        "details": "Contrary to EIP2981, modules are expected to return basisPoint for second parameters      This in order to allow right royalties on marketplaces not supporting 2981 (like Rarible)",
        "params": {
          "tokenId": "token to check"
        },
        "returns": {
          "_0": "and basisPoint for this tokenId"
        }
      },
      "setBaseURI(string)": {
        "params": {
          "newBaseURI": "the new base uri"
        }
      },
      "setCollectActive(bool)": {
        "params": {
          "isActive": "the new state (active or not)"
        }
      },
      "setContractURI(string)": {
        "params": {
          "newURI": "the new uri"
        }
      },
      "setCurrentHelix(uint256)": {
        "params": {
          "newHelix": "the new helix to mint from"
        }
      },
      "setHelixIds(uint256,uint16,uint16)": {
        "params": {
          "endId": "the highest id to collect when this helix is active",
          "helixId": "the helix to configure",
          "startId": "the lowest token id to collect when this helix is active"
        }
      },
      "setHelixPrice(uint256,uint256)": {
        "params": {
          "helixId": "the helix to configure",
          "price": "the price"
        }
      },
      "setHelixSigner(uint256,address)": {
        "params": {
          "helixId": "the helix to configure",
          "signer": "the signer address"
        }
      },
      "setNFTContract(address)": {
        "params": {
          "nftContract_": "the contract containing nft"
        }
      },
      "setRoyaltiesRecipient(address)": {
        "params": {
          "newRecipient": "the new recipient"
        }
      },
      "supportsInterface(bytes4)": {
        "details": "Returns true if this contract implements the interface defined by `interfaceId`. See the corresponding https://eips.ethereum.org/EIPS/eip-165#how-interfaces-are-identified[EIP section] to learn more about how these ids are created. This function call must use less than 30 000 gas."
      },
      "transferOwnership(address)": {
        "details": "Transfers ownership of the contract to a new account (`newOwner`). Can only be called by the current owner."
      },
      "validateSignature(address,uint256,bytes)": {
        "details": "It ensures that _allowancesSigner signed a message containing (account, nonce, address(this))      and that this message was not already used",
        "params": {
          "account": "the account the allowance is associated to",
          "nonce": "the nonce associated to this allowance",
          "signature": "the signature by the allowance signer wallet"
        },
        "returns": {
          "_0": "the message to mark as used"
        }
      },
      "withdraw()": {
        "details": "Owner withdraw balance function"
      }
    },
    "title": "VisualMassageModule",
    "version": 1
  },
  "userdoc": {
    "kind": "user",
    "methods": {
      "allowancesSigner()": {
        "notice": "Helper to know allowancesSigner address"
      },
      "baseURI()": {
        "notice": "baseURI containing all metadata files"
      },
      "collect(uint16)": {
        "notice": "collect tokenId"
      },
      "collectActive()": {
        "notice": "if the collect of nfts is active or not"
      },
      "collectWithSignature(uint16,uint256,bytes)": {
        "notice": "Collect with a signature (allows private sales)"
      },
      "configureHelix(uint256,uint16,uint16,uint256,address)": {
        "notice": "Configure a helix"
      },
      "constructor": {
        "notice": "constructor"
      },
      "contractURI()": {
        "notice": "returns an URI with information about the module"
      },
      "createMessage(address,uint256)": {
        "notice": "Helper that creates the message that signer needs to sign to allow a mint         this is usually also used when creating the allowances, to ensure \"message\"         is the same"
      },
      "createMessages(address[],uint256[])": {
        "notice": "Helper that creates a list of messages that signer needs to sign to allow mintings"
      },
      "currentHelixId()": {
        "notice": "the current helix to mint from"
      },
      "getPrice(uint256)": {
        "notice": "Returns a token id price to collect (reverts if token id not in current helix or already collected)"
      },
      "gift(uint16,address)": {
        "notice": "Allows the owner of the contract to gift tokenId to recipient"
      },
      "helixes(uint256)": {
        "notice": "all helixes"
      },
      "nftContract()": {
        "notice": "the contract containing the NFTs"
      },
      "onAttach()": {
        "notice": "Called by a Token Registry whenever the module is Attached"
      },
      "onDisable()": {
        "notice": "Called by a Token Registry whenever the module is Disabled"
      },
      "onEnable()": {
        "notice": "this contract doesn't really care if it's enabled or not         since trying to mint on a contract where it's not enabled will fail"
      },
      "overrideTokenURI(uint256,string)": {
        "notice": "override a tokenURI. For reasons."
      },
      "royaltiesRecipient()": {
        "notice": "the royalties recipient"
      },
      "royaltyInfo(address,uint256)": {
        "notice": "Return royalties (recipient, basisPoint) for tokenId"
      },
      "royaltyInfo(uint256)": {
        "notice": "Return royalties (recipient, basisPoint) for tokenId"
      },
      "setBaseURI(string)": {
        "notice": "sets new base uri"
      },
      "setCollectActive(bool)": {
        "notice": "sets collect active"
      },
      "setContractURI(string)": {
        "notice": "sets contract uri"
      },
      "setCurrentHelix(uint256)": {
        "notice": "sets new helix"
      },
      "setHelixIds(uint256,uint16,uint16)": {
        "notice": "Allows to change startId and endId of a helix"
      },
      "setHelixPrice(uint256,uint256)": {
        "notice": "Allows to change the price for a helix"
      },
      "setHelixSigner(uint256,address)": {
        "notice": "Allows to change the signer for a helix"
      },
      "setNFTContract(address)": {
        "notice": "sets nft contract"
      },
      "setRoyaltiesRecipient(address)": {
        "notice": "Alows royaltiesRecipient or ower() to change theon-chain royalties recipient address"
      },
      "tokenURIOverride(uint256)": {
        "notice": "overrides a tokenURI"
      },
      "validateSignature(address,uint256,bytes)": {
        "notice": "This function verifies that the current request is valid"
      }
    },
    "version": 1
  },
  "storageLayout": {
    "storage": [
      {
        "astId": 7281,
        "contract": "contracts/VisualMassageModule.sol:VisualMassageModule",
        "label": "_owner",
        "offset": 0,
        "slot": "0",
        "type": "t_address"
      },
      {
        "astId": 299,
        "contract": "contracts/VisualMassageModule.sol:VisualMassageModule",
        "label": "_attached",
        "offset": 0,
        "slot": "1",
        "type": "t_struct(AddressSet)8341_storage"
      },
      {
        "astId": 305,
        "contract": "contracts/VisualMassageModule.sol:VisualMassageModule",
        "label": "_contractURI",
        "offset": 0,
        "slot": "3",
        "type": "t_string_storage"
      },
      {
        "astId": 3811,
        "contract": "contracts/VisualMassageModule.sol:VisualMassageModule",
        "label": "usedAllowances",
        "offset": 0,
        "slot": "4",
        "type": "t_mapping(t_bytes32,t_bool)"
      },
      {
        "astId": 3813,
        "contract": "contracts/VisualMassageModule.sol:VisualMassageModule",
        "label": "_allowancesSigner",
        "offset": 0,
        "slot": "5",
        "type": "t_address"
      },
      {
        "astId": 8718,
        "contract": "contracts/VisualMassageModule.sol:VisualMassageModule",
        "label": "baseURI",
        "offset": 0,
        "slot": "6",
        "type": "t_string_storage"
      },
      {
        "astId": 8721,
        "contract": "contracts/VisualMassageModule.sol:VisualMassageModule",
        "label": "nftContract",
        "offset": 0,
        "slot": "7",
        "type": "t_address"
      },
      {
        "astId": 8724,
        "contract": "contracts/VisualMassageModule.sol:VisualMassageModule",
        "label": "collectActive",
        "offset": 20,
        "slot": "7",
        "type": "t_bool"
      },
      {
        "astId": 8727,
        "contract": "contracts/VisualMassageModule.sol:VisualMassageModule",
        "label": "currentHelixId",
        "offset": 0,
        "slot": "8",
        "type": "t_uint256"
      },
      {
        "astId": 8730,
        "contract": "contracts/VisualMassageModule.sol:VisualMassageModule",
        "label": "royaltiesRecipient",
        "offset": 0,
        "slot": "9",
        "type": "t_address"
      },
      {
        "astId": 8736,
        "contract": "contracts/VisualMassageModule.sol:VisualMassageModule",
        "label": "helixes",
        "offset": 0,
        "slot": "10",
        "type": "t_mapping(t_uint256,t_struct(Helix)8715_storage)"
      },
      {
        "astId": 8741,
        "contract": "contracts/VisualMassageModule.sol:VisualMassageModule",
        "label": "tokenURIOverride",
        "offset": 0,
        "slot": "11",
        "type": "t_mapping(t_uint256,t_string_storage)"
      }
    ],
    "types": {
      "t_address": {
        "encoding": "inplace",
        "label": "address",
        "numberOfBytes": "20"
      },
      "t_array(t_bytes32)dyn_storage": {
        "base": "t_bytes32",
        "encoding": "dynamic_array",
        "label": "bytes32[]",
        "numberOfBytes": "32"
      },
      "t_bool": {
        "encoding": "inplace",
        "label": "bool",
        "numberOfBytes": "1"
      },
      "t_bytes32": {
        "encoding": "inplace",
        "label": "bytes32",
        "numberOfBytes": "32"
      },
      "t_mapping(t_bytes32,t_bool)": {
        "encoding": "mapping",
        "key": "t_bytes32",
        "label": "mapping(bytes32 => bool)",
        "numberOfBytes": "32",
        "value": "t_bool"
      },
      "t_mapping(t_bytes32,t_uint256)": {
        "encoding": "mapping",
        "key": "t_bytes32",
        "label": "mapping(bytes32 => uint256)",
        "numberOfBytes": "32",
        "value": "t_uint256"
      },
      "t_mapping(t_uint256,t_string_storage)": {
        "encoding": "mapping",
        "key": "t_uint256",
        "label": "mapping(uint256 => string)",
        "numberOfBytes": "32",
        "value": "t_string_storage"
      },
      "t_mapping(t_uint256,t_struct(Helix)8715_storage)": {
        "encoding": "mapping",
        "key": "t_uint256",
        "label": "mapping(uint256 => struct VisualMassageModule.Helix)",
        "numberOfBytes": "32",
        "value": "t_struct(Helix)8715_storage"
      },
      "t_string_storage": {
        "encoding": "bytes",
        "label": "string",
        "numberOfBytes": "32"
      },
      "t_struct(AddressSet)8341_storage": {
        "encoding": "inplace",
        "label": "struct EnumerableSet.AddressSet",
        "members": [
          {
            "astId": 8340,
            "contract": "contracts/VisualMassageModule.sol:VisualMassageModule",
            "label": "_inner",
            "offset": 0,
            "slot": "0",
            "type": "t_struct(Set)8040_storage"
          }
        ],
        "numberOfBytes": "64"
      },
      "t_struct(Helix)8715_storage": {
        "encoding": "inplace",
        "label": "struct VisualMassageModule.Helix",
        "members": [
          {
            "astId": 8708,
            "contract": "contracts/VisualMassageModule.sol:VisualMassageModule",
            "label": "startId",
            "offset": 0,
            "slot": "0",
            "type": "t_uint16"
          },
          {
            "astId": 8710,
            "contract": "contracts/VisualMassageModule.sol:VisualMassageModule",
            "label": "endId",
            "offset": 2,
            "slot": "0",
            "type": "t_uint16"
          },
          {
            "astId": 8712,
            "contract": "contracts/VisualMassageModule.sol:VisualMassageModule",
            "label": "signer",
            "offset": 4,
            "slot": "0",
            "type": "t_address"
          },
          {
            "astId": 8714,
            "contract": "contracts/VisualMassageModule.sol:VisualMassageModule",
            "label": "price",
            "offset": 0,
            "slot": "1",
            "type": "t_uint256"
          }
        ],
        "numberOfBytes": "64"
      },
      "t_struct(Set)8040_storage": {
        "encoding": "inplace",
        "label": "struct EnumerableSet.Set",
        "members": [
          {
            "astId": 8035,
            "contract": "contracts/VisualMassageModule.sol:VisualMassageModule",
            "label": "_values",
            "offset": 0,
            "slot": "0",
            "type": "t_array(t_bytes32)dyn_storage"
          },
          {
            "astId": 8039,
            "contract": "contracts/VisualMassageModule.sol:VisualMassageModule",
            "label": "_indexes",
            "offset": 0,
            "slot": "1",
            "type": "t_mapping(t_bytes32,t_uint256)"
          }
        ],
        "numberOfBytes": "64"
      },
      "t_uint16": {
        "encoding": "inplace",
        "label": "uint16",
        "numberOfBytes": "2"
      },
      "t_uint256": {
        "encoding": "inplace",
        "label": "uint256",
        "numberOfBytes": "32"
      }
    }
  }
}